S00D000070656767792E73726563FB
S11300000C943E000C9459000C9459000C94590023
S11300100C9466000C9459000C9459000C945900EB
S11300200C9459000C9459000C9459000C945900E8
S11300300C9459000C9459000C9459000C945900D8
S11300400C9459000C9459000C9459000C945900C8
S11300500C9459000C9459000C9459000C945900B8
S11300600C9459000C9459000C9459000C945900A8
S11300700C9459000C9459000C94590011241FBE7F
S1130080CFEFD4E0DEBFCDBF11E0A0E0B1E0ECE4FF
S1130090F3E002C005900D92A030B107D9F711E04A
S11300A0A0E0B1E001C01D92A030B107E1F70C94CB
S11300B07F000C940000000000000000000000001D
S11300C00000000000000000000008951F920F923D
S11300D00FB60F9211248F931AB81BB817B818B81B
S11300E014B815B811B812B810927A0085E083BF1D
S11300F088958F910F900FBE0F901F9018952F9297
S11301003F924F925F926F927F928F929F92AF92A3
S1130110BF92CF92DF92EF92FF920F931F93CF93F0
S1130120DF93F89411B812B885B7806185BF84E075
S113013080936B0081E0809368001AB88FEF8BB9CD
S113014017B888B914B885B911B882B985E0809315
S11301507C0087E880937A0080917A0080648093A1
S11301607A0080917A0086FDFCCF8091780090918E
S1130170790083E080937C009FEF97B980E488B98D
S113018012B815B818B81BB880EC81B994B997B9EE
S11301909AB97894F8E06F2E712C88249924C0E0E1
S11301A0D0E0E1E02E2E312C44245524219681E028
S11301B08816910421F083E08816910409F42596A9
S11301C081E0C837D80750F181E02816310479F46A
S11301D00894611C711C80E868167104E8F07FE7DC
S11301E0672E712CC0E0D0E02224332417C0089479
S11301F0610871086114710479F40894811C911CDC
S113020084E08816910411F488249924C0E0D0E095
S113021061E0262E312C02C0C0E0D0E00894411CDD
S1130220511C8FE74816510418F04424552403C088
S11302306414750438F08114910499F182E08816ED
S1130240910479F181E088B90E945B0082E088B969
S11302500E945B0084E088B90E945B0088E088B952
S11302600E945B0080E188B90E945B0080E288B94B
S11302700E945B0080E488B90E945B0080E888B932
S11302800E945B0018B81BB80E945B001BB80E9458
S11302905B001BB80E945B001BB80E945B001BB88C
S11302A051C000E402B90E945B0010E812B90E9438
S11302B05B0012B851E0A52EA5B80E945B0042E095
S11302C0B42EB5B80E945B0034E0C32EC5B80E94BA
S11302D05B0028E0D22ED5B80E945B0090E1E92EA5
S11302E0E5B80E945B0080E2F82EF5B80E945B003E
S11302F005B90E945B0015B90E945B0015B818B8D7
S11303000E945B0018B80E945B0018B80E945B0052
S113031018B80E945B0018B8ABB80E945B00BBB869
S11303200E945B00CBB80E945B00DBB80E945B00BC
S1130330EBB80E945B00FBB80E945B000BB90E9403
S10F03405B001BB90E945B001BB830CFAF
S9030000FC
